:020000040800F2
:10000000FF1F0020412A0008492A0008512A000841
:1000100000000000000000000000000000000000E0
:10002000000000000000000000000000592A000845
:10003000E11C000800000000612A0008B127000848
:10004000E11C0008E11C0008E11C0008E11C00089C
:10005000E11C0008E11C0008C1270008E127000896
:1000600000000000E11C0008E11C0008E11C000881
:10007000E11C0008E11C000800000000E11C000871
:1000800000000000E11C000800000000000000006B
:10009000E11C000800000000E11C0008E11C000851
:1000A000E11C0008E11C0008E11C0008E11C00083C
:1000B000E11C0008E11C0008000000000000000036
:1000C000FF1F0020412A0008492A0008512A000881
:1000D0000000000000000000000000000000000020
:1000E000000000000000000000000000592A000885
:1000F0000000000000000000612A0008B12700088D
:04010000712A000858
:10010400002934D00123002210B488422CD30124C6
:100114002407A14204D2814202D209011B01F8E75B
:10012400E400A14204D2814202D249005B00F8E714
:10013400884201D3401A1A434C08A04202D3001B40
:100144005C0822438C08A04202D3001B9C08224373
:10015400CC08A04202D3001BDC082243002803D0B1
:100164001B0901D00909E3E7101C10BC70470028E3
:1001740001D00020C04307B4024802A140180290F5
:1001840003BDC046190000000029F0D003B5FFF7F5
:10019400B9FF0EBC4243891A1847C0467047C0468F
:1001A40080B500AF0A4B0A4A126840210A431A601C
:1001B400074B074A126802210A431A60032000F021
:1001C40009F800F01BFB0023181CBD4680BDC04687
:1001D4000020024080B582B000AF786001F04CF896
:1001E400031C181CFA239900FFF78AFF031C181C30
:1001F40000F00AF901235A427B68101C191C0022E2
:1002040000F0DCF80023181CBD4602B080BDC046D7
:1002140080B500AF034B1B685A1C024B1A60BD46E5
:1002240080BDC0467C00002080B500AF024B1B6837
:10023400181CBD4680BDC0467C00002080B584B03B
:1002440000AF78600023FB60FFF7EEFF031CFB6048
:10025400C046FFF7E9FF021CFB68D21A7B689A428A
:10026400F7D3BD4604B080BD80B582B000AF021C98
:10027400FB1D1A70064BFA1D1278111C1F220A402E
:100284000121081C9040021C1A60BD4602B080BDCA
:1002940000E100E0B0B582B000AF021C3960FB1D84
:1002A4001A70FB1D1B787F2B32D93049FB1D1B783C
:1002B4001A1C0F231340083B98082C4AFB1D1B787B
:1002C4001C1C0F232340083B9B0806339B00D318B8
:1002D4005B68FA1D1278141C03222240D200FF240A
:1002E400251C95402A1CD2431A403B689C01FF23DD
:1002F4001C40FB1D1B781D1C03232B40DB00251C0D
:100304009D402B1C1A43831D9B00CB185A6029E087
:10031400174BFA1D127852B292081549F81D00784D
:1003240040B28008C03080004158F81D0078041C99
:1003340003202040C000FF24251C8540281CC04306
:10034400084039688C01FF210C40F91D09780D1C07
:1003540003212940C900251C8D40291C0143C032BA
:100364009200D150BD4602B0B0BDC04600ED00E0E1
:1003740000E100E080B582B000AF78607B685A1E6F
:100384000C4B9A4201D9012310E00B4B7A68013AD5
:100394005A6001235B42181C0321FFF77BFF064BC5
:1003A40000229A60044B07221A600023181CBD46E1
:1003B40002B080BDFFFFFF0010E000E080B584B014
:1003C40000AFB9607A603B1C0F33021C1A703B1CEF
:1003D4000F3300229A56BB68101C191CFFF75AFFF2
:1003E400BD4604B080BDC04680B582B000AF021CDB
:1003F400FB1D1A70FB1D1B785BB2181CFFF734FF42
:10040400BD4602B080BDC04680B582B000AF786002
:100414007B68181CFFF7AEFF031C181CBD4602B016
:1004240080BDC04680B500AF00F002F8BD4680BD77
:1004340080B500AFBD4680BD80B586B000AF7860A2
:1004440039600023FB600023BB6000233B61002371
:100454007B615CE17B690122111C99400B1CFB60F0
:100464003B681B68FA681340BB60BA68FB689A4231
:1004740000D049E13B685B68022B03D03B685B68B2
:10048400122B25D17B69DA087B6808329200D35895
:100494003B617A69072313409B000F22111C99408A
:1004A4000B1CDA433B6913403B613B681A69796969
:1004B40007230B409B00111C99400B1C3A69134302
:1004C4003B617B69DA087B68083292003969D15054
:1004D4003B685B68012B0BD03B685B68022B07D041
:1004E4003B685B68112B03D03B685B68122B34D1EB
:1004F4007B689B683B617B695B000322111C99400C
:100504000B1CDA433B6913403B613B68DA687B6947
:100514005B00111C99400B1C3A6913433B617B68D7
:100524003A699A607B685B683B617B690122111CB4
:1005340099400B1CDA433B6913403B613B685A68A2
:10054400102313401A097B69111C99400B1C3A694A
:1005540013433B617B683A695A607B681B683B6163
:100564007B695B000322111C99400B1CDA433B6935
:1005740013403B613B685A6803231A407B695B0064
:10058400111C99400B1C3A6913433B617B683A691F
:100594001A607B68DB683B617B695B000322111C8A
:1005A40099400B1CDA433B6913403B613B689A68F2
:1005B4007B695B00111C99400B1C3A6913433B6136
:1005C4007B683A69DA603B685A6880235B051340AC
:1005D40000D199E0514B514A526B01210A435A63AD
:1005E4004F4B7A69920802329200D3583B617A6980
:1005F400032313409B00102252429A403B6913404C
:100604003B617A68A023DB059A4219D07A68454B8E
:100614009A4213D07A68444B9A420DD07A68434B7D
:100624009A4207D07A68424B9A4201D1042308E0E7
:10063400052306E0032304E0022302E0012300E093
:100644000023796903220A40920093403A691343D4
:100654003B61334B7A699208023292003969D15076
:10066400344B1B683B61BB68DA433B6913403B6115
:100674003B685A6880235B02134003D03A69BB6825
:1006840013433B612B4B3A691A602A4B5B683B610D
:10069400BB68DA433B6913403B613B685A6880237B
:1006A4009B02134003D03A69BB6813433B61214B5F
:1006B4003A695A601F4B9B683B61BB68DA433B69EC
:1006C40013403B613B685A6880235B03134003D0AB
:1006D4003A69BB6813433B61164B3A699A60154B00
:1006E400DB683B61BB68DA433B6913403B613B68B1
:1006F4005A6880239B03134003D03A69BB681343B1
:100704003B610C4B3A69DA607B6901337B617B693D
:100714000F2B00D89EE6BD4606B080BD00100240F7
:10072400000001400004005000080050000C00507C
:10073400001C00500004014080B584B000AF786014
:100744000A1CBB1C1A807B681B69BA1C12881340E4
:1007540004D03B1C0F3301221A7003E03B1C0F33FF
:1007640000221A703B1C0F331B78181CBD4604B0C2
:1007740080BDC04680B582B000AF7860BB1C1980D4
:100784007B1C1A707B1C1B78002B04D0BB1C1A88A2
:100794007B689A6103E0BB1C1A887B689A62BD4639
:1007A40002B080BD80B582B000AF78600A1CBB1C6B
:1007B4001A807B685A69BB1C1B885A407B685A6143
:1007C400BD4602B080BDC04680B582B000AF021CF9
:1007D400BB1D1A80084B5B69BA1D1288134008D0F0
:1007E400054BBA1D12885A61BB1D1B88181C01F0E9
:1007F4005FFFBD4602B080BD0004014080B500AF7C
:10080400BD4680BD80B584B000AF78600023FB6036
:100814007B681A680123134000D175E0C44BDA6881
:100824000C231340082B0BD0C14BDA680C23134064
:100834000C2B14D1BE4BDA6880235B0213400ED01C
:10084400BB4B1A6880239B02134007D07B685A680D
:1008540080235B029A4201D00123CBE254E0B44BE3
:10086400B34A1168B34A0A401A60FFF7DDFC031C5F
:10087400FB6009E0FFF7D8FC021CFB68D21AAE4B00
:100884009A4201D90323B5E2A94B1A6880239B023B
:100894001340EFD1A64BA64A1168A64A11407A68C4
:1008A40052680A431A607B685A6880235B029A4242
:1008B40015D1FFF7B9FC031CFB6009E0FFF7B4FC9A
:1008C400021CFB68D21A9C4B9A4201D9032391E281
:1008D400974B1A6880239B021340EFD014E0FFF774
:1008E400A3FC031CFB6009E0FFF79EFC021CFB68F1
:1008F400D21A914B9A4201D903237BE28C4B1A689A
:1009040080239B021340EFD17B681A6802231340B3
:1009140000D172E0864BDA680C231340042B0BD011
:10092400834BDA680C2313400C2B1BD1804BDA6801
:1009340080235B02134015D17D4B1A6804231340B6
:1009440005D07B68DB68012B01D0012352E2784B90
:10095400774A5168794A11407A68126912020A4347
:100964005A604AE07B68DB68002B28D0704B704AE1
:1009740012680921101C8843011C7A68D2680A4352
:100984001A60FFF751FC031CFB6008E0FFF74CFC06
:10099400021CFB68D31A642B01D903232AE2644B9B
:1009A4001A6804231340F1D0614B614A5168634AC9
:1009B40011407A68126912020A435A601DE05C4BC6
:1009C4005B4A12680921101C8843011C7A68D268AA
:1009D4000A431A60FFF728FC031CFB6008E0FFF7DA
:1009E40023FC021CFB68D31A642B01D9032301E204
:1009F4004F4B1A6804231340F1D17B681A68102303
:100A0400134000D171E04A4BDA680C2313401FD124
:100A1400474B1A6880239B00134005D07B68DB6931
:100A2400012B01D00123E5E1414B414A5168444A7D
:100A340011407A68526A0A435A603D4B3C4A5268F4
:100A44001202110A7A68126A12060A435A604CE0CA
:100A54007B68DB69002B2ED0354B354A1268802128
:100A640049000A431A60FFF7DFFB031CFB6008E040
:100A7400FFF7DAFB021CFB68D31A642B01D90323AA
:100A8400B8E12B4B1A6880239B001340F0D0284B0D
:100A9400274A51682A4A11407A68526A0A435A60BE
:100AA400234B234A52681202110A7A68126A120608
:100AB4000A435A6019E01E4B1D4A1168214A0A4034
:100AC4001A60FFF7B1FB031CFB6008E0FFF7ACFB07
:100AD400021CFB68D31A642B01D903238AE1144B4B
:100AE4001A6880239B001340F0D17B681A6808239E
:100AF400134042D07B685B69002B25D00C4B0C4A19
:100B0400126D01210A431A65FFF78EFB031CFB607B
:100B140008E0FFF789FB021CFB68D31A642B01D998
:100B2400032367E1024B1A6D02231340F1D024E042
:100B340000100240FFFFFAFF88130000FFE0FFFFF0
:100B4400FF1FFFFFFFFEFFFFAC4BAC4A126D0121FC
:100B54008A431A65FFF768FB031CFB6008E0FFF794
:100B640063FB021CFB68D31A642B01D9032341E104
:100B7400A24B1A6D02231340F1D17B681A6820231B
:100B8400134048D07B689B69002B25D09B4B9B4A24
:100B9400926801210A439A60984B984A526B01214A
:100BA4000A435A63964B964A126A96490A431A6252
:100BB400FFF73AFB031CFB6008E0FFF735FB021C60
:100BC400FB68D31A642B01D9032313E18B4B9A6876
:100BD40002231340F1D01EE0884B884A9268012119
:100BE4008A439A60864B864A116A874A0A401A6287
:100BF400FFF71AFB031CFB6008E0FFF715FB021C60
:100C0400FB68D31A642B01D90323F3E07B4B9A6866
:100C140002231340F1D17B681A680423134000D1E6
:100C240076E0764B754A926B802149050A439A63B4
:100C3400764B764A1268802149000A431A60FFF70E
:100C4400F3FA031CFB6008E0FFF7EEFA021CFB68F2
:100C5400D31A642B01D90323CCE06C4B1A6880238C
:100C64005B001340F0D0654B644A116D684A0A403A
:100C74001A65FFF7D9FA031CFB6009E0FFF7D4FA01
:100C8400021CFB68D21A634B9A4201D90323B1E0D8
:100C94005A4B1A6D80239B001340EFD1574B574A90
:100CA400116D5B4A11407A6892680A431A657B6841
:100CB4009A6880235B009A4215D1FFF7B5FA031CAA
:100CC400FB6009E0FFF7B0FA021CFB68D21A514B33
:100CD4009A4201D903238DE0484B1A6D80239B006F
:100CE4001340EFD014E0FFF79FFA031CFB6009E008
:100CF400FFF79AFA021CFB68D21A464B9A4201D9B2
:100D0400032377E03D4B1A6D80239B001340EFD102
:100D14007B689B6A002B00D16BE0384BDA680C23AC
:100D240013400C2B63D07B689B6A022B44D1334B5A
:100D3400324A1168384A0A401A60FFF775FA031CF0
:100D4400FB6008E0FFF770FA021CFB68D31A642BFF
:100D540001D903234EE0294B1A6880239B041340D6
:100D6400F0D1264B254AD1682C4A11407A68106B81
:100D74007A68526B10437A68D26A02430A43DA6093
:100D84001E4B1E4A1268802149040A431A60FFF769
:100D94004BFA031CFB6008E0FFF746FA021CFB68F1
:100DA400D31A642B01D9032324E0144B1A6880233B
:100DB4009B041340F0D01CE0104B104A1168164AF3
:100DC4000A401A60FFF730FA031CFB6008E0FFF7E3
:100DD4002BFA021CFB68D31A642B01D9032309E004
:100DE400064B1A6880239B041340F0D101E00123D1
:100DF40000E00023181CBD4604B080BD0010024072
:100E04000000014001200000FEDFFFFF00700040F1
:100E1400FFFAFFFF88130000FFFFFFFEFFFF02FF42
:100E240080B584B000AF786039600023FB60B94BB3
:100E34001A6801231A403B689A4200D3B5E0B54BC7
:100E4400B44A12680121101C8843011C3A680A4301
:100E54001A60B04B1A6801231A403B689A4201D0C9
:100E640001237EE17B681A68022313400AD0AA4B4F
:100E7400A94AD268F021101C8843011C7A68926840
:100E84000A43DA607B681A680123134000D147E102
:100E94007B685B68022B07D19F4B1A6880239B02F7
:100EA400134020D101235CE17B685B68002B07D1F0
:100EB400994B1A6880239B00134014D1012350E1FD
:100EC4007B685B68032B07D1934B1A6880239B04D0
:100ED400134008D1012344E18F4B1A6804231340C3
:100EE40001D101233DE18C4B8B4AD2680321101CB4
:100EF4008843011C7A6852680A43DA60FFF794F960
:100F0400031CFB607B685B68022B11D109E0FFF7CF
:100F14008BF9021CFB68D21A804B9A4201D9032335
:100F24001FE17D4BDA680C231340082BEFD1F7E067
:100F34007B685B68032B11D109E0FFF775F9021C8C
:100F4400FB68D21A754B9A4201D9032309E1724B0B
:100F5400DA680C2313400C2BEFD1E1E07B685B686B
:100F6400002B10D109E0FFF75FF9021CFB68D21ACD
:100F74006A4B9A4201D90323F3E0674BDA680C23E6
:100F84001340F0D1CCE009E0FFF74EF9021CFB68F6
:100F9400D21A624B9A4201D90323E2E05E4BDA682B
:100FA4000C231340042BEFD1BAE07B681A680223A8
:100FB40013400AD0584B584AD268F021101C884379
:100FC400011C7A6892680A43DA607B681A68012314
:100FD400134000D18BE07B685B68022B07D14E4B3A
:100FE4001A6880239B02134020D10123B9E07B6857
:100FF4005B68002B07D1484B1A6880239B00134081
:1010040014D10123ADE07B685B68032B07D1424B0D
:101014001A6880239B04134008D10123A1E03E4BAE
:101024001A680423134001D101239AE03A4B3A4A47
:10103400D2680321101C8843011C7A6852680A4351
:10104400DA60FFF7F1F8031CFB607B685B68022B36
:1010540011D109E0FFF7E8F8021CFB68D21A2F4B04
:101064009A4201D903237CE02B4BDA680C2313400A
:10107400082BEFD13BE07B685B68032B11D109E0BF
:10108400FFF7D2F8021CFB68D21A244B9A4201D90A
:10109400032366E0204BDA680C2313400C2BEFD1BA
:1010A40025E07B685B68002B10D109E0FFF7BCF8F2
:1010B400021CFB68D21A194B9A4201D9032350E04F
:1010C400154BDA680C231340F0D110E009E0FFF768
:1010D400ABF8021CFB68D21A104B9A4201D90323C5
:1010E4003FE00D4BDA680C231340042BEFD1094B7E
:1010F400084A12680121101C8843011C3A680A43FB
:101104001A60044B1A6801231A403B689A4207D0BC
:10111400012326E000200240001002408813000052
:101124007B681A680423134008D0104B0F4AD16817
:101134000F4A11407A68D2680A43DA607B681A68F9
:101144000823134009D0094B084AD168094A1140C1
:101154007A681269D2000A43DA600320FFF73AF88A
:101164000023181CBD4604B080BDC04600100240D8
:10117400FFF8FFFFFFC7FFFF80B586B000AF002375
:101184003B610023FB600023BB6000237B600023E2
:101194007B61334B5A68E0231B0213405B0B7B607B
:1011A400304B7A689200D3587B602D4BDA680C235D
:1011B4001340042B0BD002D8002B05D048E0082B99
:1011C40010D00C2B11D043E07B687B6143E0244BAF
:1011D4001A681023134002D0234B7B613BE0234B5E
:1011E4007B6138E0224B7B6135E01D4BDA68F023EC
:1011F4009B0313403B611A4BDA68C0231B04134062
:10120400FB603B699B0C1B4AD35CDBB23B61FB6814
:101214009B0D0133FB60124BDA6880235B021340A1
:10122400BB60BB68002B09D13B69104A5343181CAF
:10123400F968FEF765FF031C7B610CE03B690C4A0F
:101244005343181CF968FEF75BFF031C7B6102E043
:101254007B687B61C0467B69181CBD4606B080BDB7
:1012640000100240782A000800093D000024F40020
:1012740000127A000000002080B500AFFFF77CFF69
:10128400021C084BD968F0230B401B090649CB5CB0
:10129400DBB2DA40054B1A60044B1B68181CBD46D0
:1012A40080BDC046001002400C0000202C0000202D
:1012B40080B582B000AF78607B68002B01D1012338
:1012C40056E07A685123D35CDBB2002B03D17B68F0
:1012D400181C01F037FA7A6851230221D1547B6833
:1012E4001B687A681268126840218A431A607B6816
:1012F4001B687A6851687A68926811437A68D26880
:1013040011437A68126911437A68526911437A6801
:10131400906980229200024011437A68D269114395
:101324007A68126A11437A68926A0A431A607B687F
:101334001B687A689269110C042211407A68526A17
:101344000A435A607B681B687A68D26A1A617B68B0
:101354001B687A681268D169074A0A40DA617A68B8
:1013640052230021D1547A6851230121D1540023FE
:10137400181CBD4602B080BDFFF7FFFF80B584B0E6
:1013840000AFF860B9603B60BB1D1A80FA68512356
:10139400D35CDBB2012B00D03DE1BB68002B03D052
:1013A400BB1D1B88002B01D1012335E1FA685023B2
:1013B400D35C012B01D102232EE1FA6850230121D1
:1013C400D154FA6851231221D154FA6852230021CE
:1013D400D154FB68BA681A63FB68BA1D12889A86EE
:1013E400FB68BA1D1288DA86FB680022DA64FB689F
:1013F40000229A64FB6800229A87FB680022DA873D
:10140400FB689A6A80239B019A4210D1FB681B688F
:10141400FA6812681168824A0A401A60FB681B68FD
:10142400FA6812681268802189010A431A60FB680D
:101434009A6880231B029A4208D1FB681B68FA68E9
:10144400126812688021C9010A431A60FB681B688C
:101454001A684023134007D1FB681B68FA681268B6
:10146400126840210A431A60FB68DB68002B47D1ED
:10147400FB685B68002B03D0FB68DB8E012B0FD16C
:10148400FB681B68FA68126B501CF96808631278D1
:10149400DA60FB68DB8E013B9AB2FB68DA861BE0FC
:1014A4001AE0FA683B68101C0221002200F048FB95
:1014B400031C002B01D00323AEE0FB681B68FA6811
:1014C400126B501CF96808631278DA60FB68DB8ED3
:1014D400013B9AB2FB68DA86FB68DB8E002BE0D115
:1014E400FB689A6A80239B019A4254D1FB681B686B
:1014F400FA6812681268802149010A431A604AE0B6
:10150400FB685B68002B03D0FB68DB8E012B11D1D9
:10151400FB681B68FA68126B1288DA60FB681B6B45
:101524009A1CFB681A63FB68DB8E013B9AB2FB686A
:10153400DA861DE01CE0FA683B68101C02210022D8
:1015440000F0FEFA031C002B01D0032364E0FB68C7
:101554001B68FA68126B1288DA60FB681B6B9A1CB2
:10156400FB681A63FB68DB8E013B9AB2FB68DA8680
:10157400FB68DB8E002BDED1FB689A6A80239B011B
:101584009A4208D1FB681B68FA68126812688021C5
:1015940049010A431A60FA683B68101C02210022C0
:1015A40000F0CEFA031C002B0BD0FA685223D35C54
:1015B400DBB220221343D9B2FA685223D154032355
:1015C4002AE0FA683B68101C8021012200F0B8FA76
:1015D400031C002B0BD0FA685223D35CDBB220220D
:1015E4001343D9B2FA685223D154032314E0FB689D
:1015F4009B68002B05D1FB681B68DB68FB681B68D4
:101604009B68FA6851230121D154FA6850230021C0
:10161400D154002300E00223181CBD4604B080BD51
:10162400FFDFFFFF80B588B000AFF860B9607A6073
:101634001A1CBB1C1A800023FB610023BB61FA68DF
:101644005123D35CDBB2FB61FB69012B03D0FB6943
:10165400222B00D06CE2BB68002B06D07B68002BE9
:1016640003D0BB1C1B88002B01D1012361E2FA6863
:101674005023D35C012B01D102235AE2FA68502390
:101684000121D154FA685123D35CDBB2012B03D17D
:10169400FA6851233221D154FA6852230021D154DB
:1016A400FB687A689A63FB68BA1C12889A87FB689D
:1016B400BA1C1288DA87FB68BA681A63FB68BA1C1A
:1016C40012889A86FB68BA1C1288DA86FB680022A4
:1016D4009A64FB680022DA64FB689A6A80239B019F
:1016E4009A4210D1FB681B68FA6812681168C94AEB
:1016F4000A401A60FB681B68FA6812681268802145
:1017040089010A431A60FB681B681A684023134066
:1017140007D1FB681B68FA681268126840210A4303
:101724001A60FB68DA6880231B019A4200D0C7E084
:10173400FB685B68002B09D0FB685A6882235B0056
:101744009A4214D1FB68DB8E012B10D1FB681B6815
:10175400FA68126B1288DA60FB681B6B9A1CFB68D0
:101764001A63FB68DB8E013B9AB2FB68DA86FB687E
:10177400DB8E002B2DD1FB689A6A80239B019A4251
:1017840008D1FB681B68FA68126812688021490155
:101794000A431A60FA68BB6A101C0121002200F097
:1017A400CFF9031C002B01D00323C2E1FB689A6B21
:1017B400FB681B68DB689BB21380FB689B6B9A1CFD
:1017C400FB689A63FB68DB8F013B9AB2FB68DA879C
:1017D40032E14DE0FA68BB6A101C0221002200F0DD
:1017E400AFF9031C002B01D00323A2E1FB681B68A3
:1017F400FA68126B1288DA60FB681B6B9A1CFB6830
:101804001A63FB68DB8E013B9AB2FB68DA86FB68DD
:10181400DB8E002B0ED1FB689A6A80239B019A42CF
:1018240008D1FB681B68FA681268126880214901B4
:101834000A431A60FA68BB6A101C0121002200F0F6
:101844007FF9031C002B01D0032372E1FB689A6B20
:10185400FB681B68DB689BB21380FB689B6B9A1C5C
:10186400FB689A63FB68DB8F013B9AB2FB68DA87FB
:10187400FB68DB8E002BADD1FB685B68002B00D0CE
:10188400DAE0FA68BB6A101C0121002200F058F962
:10189400031C002B01D003234BE1FB689A6BFB680C
:1018A4001B68DB689BB21380FB689B6B9A1CFB680C
:1018B4009A63FB68DB8F013B9AB2FB68DA87BBE073
:1018C400FB685B68002B09D0FB685A6882235B00C5
:1018D4009A4212D1FB68DB8E012B0ED1FB681B6888
:1018E400FA68126B501CF96808631278DA60FB68B6
:1018F400DB8E013B9AB2FB68DA86FB68DB8E002B39
:1019040028D1FB689A6A80239B019A4208D1FB681C
:101914001B68FA6812681268802149010A431A6038
:10192400FA68BB6A101C0121002200F009F9031CAB
:10193400002B01D00323FCE0FB689A6BFB681B6857
:10194400DB68DBB21370FB68DB8F013B9AB2FB6888
:10195400DA8771E049E0FA68BB6A101C02210022B0
:1019640000F0EEF8031C002B01D00323E1E0FB6838
:101974001B68FA68126B501CF96808631278DA6005
:10198400FB68DB8E013B9AB2FB68DA86FB68DB8E70
:10199400002B0ED1FB689A6A80239B019A4208D1DE
:1019A400FB681B68FA6812681268802149010A43BF
:1019B4001A60FA68BB6A101C0121002200F0C0F80A
:1019C400031C002B01D00323B3E0FB689B6B591C61
:1019D400FA689163FA681268D268D2B21A70FB6826
:1019E400DB8F013B9AB2FB68DA87FB68DB8E002B46
:1019F400B1D1FB685B68002B1ED1FA68BB6A101C6E
:101A04000121002200F09CF8031C002B04D00323C6
:101A14008FE0C046FFDFFFFFFB689B6B591CFA6831
:101A24009163FA681268D268D2B21A70FB68DB8FCD
:101A3400013B9AB2FB68DA87FB689A6A80239B01B0
:101A44009A421CD1FA68BB6A101C0121002200F0E2
:101A540077F8031C002B0BD0FA685223D35CDBB25B
:101A640002221343D9B2FA685223D154032360E00B
:101A7400FB681B68DB689AB23B1C16331A80FA6851
:101A8400BB6A101C8021012200F05AF8031C002BB1
:101A94000BD0FA685223D35CDBB220221343D9B2B1
:101AA400FA685223D154032343E0FA6851230121F5
:101AB400D154FB681B689A68102313405A1E934143
:101AC400DBB2BB61FB689A6A80239B019A4229D1ED
:101AD400BB69002B26D0FA685223D35CDBB2022206
:101AE4001343D9B2FA685223D154FB689A6A80230B
:101AF4009B019A4210D1FB681B68FA68126811684E
:101B04000E4A0A401A60FB681B68FA681268126879
:101B1400802189010A431A60FA6850230021D154B4
:101B2400012306E0FA6850230021D154002300E089
:101B34000223181CBD4608B080BDC046FFDFFFFF6E
:101B440080B586B000AFF860B9603B60FB1D1A70C9
:101B540000237B61FEF768FB031C7B61FB1D1B7884
:101B6400002B48D13EE03B6801333BD03B68002B5F
:101B740007D0FEF759FB021C7B69D21A3B689A42D4
:101B840030D9FB681B68FA6812685268E0218A43FE
:101B94005A60FB681B68FA681268126840218A431D
:101BA4001A60FB689A6A80239B019A4210D1FB68F1
:101BB4001B68FA6812681168354A0A401A60FB68A3
:101BC4001B68FA6812681268802189010A431A6046
:101BD400FA6851230121D154FA6850230021D154C9
:101BE400032351E0FB681B689B68BA681A40BB6812
:101BF4009A42B8D147E03EE03B6801333BD03B68B2
:101C0400002B07D0FEF710FB021C7B69D21A3B683D
:101C14009A4230D9FB681B68FA6812685268E0215E
:101C24008A435A60FB681B68FA681268126840218C
:101C34008A431A60FB689A6A80239B019A4210D1F6
:101C4400FB681B68FA6812681168114A0A401A6036
:101C5400FB681B68FA6812681268802189010A43CC
:101C64001A60FA6851230121D154FA6850230021E3
:101C7400D154032308E0FB681B689B68BA681A40C8
:101C8400BB689A42B8D00023181CBD4606B080BD7C
:101C9400FFDFFFFF80B582B000AF7860FEE7C0468B
:101CA40080B582B000AF786039607B6801221A6029
:101CB4003B68034A1A60C046BD4602B080BDC046B8
:101CC4002400002080B500AF00F00AF8BD4680BDB6
:101CD40080B500AF00F040F8BD4680BDFEE70000CF
:101CE40080B500AF164B164A1268802149000A439A
:101CF4001A60134B124AD168124A0A40DA60104B38
:101D04000F4A1168104A0A401A600D4B0C4A926837
:101D140001218A439A600A4B094A11680B4A0A4016
:101D24001A60074B064AD168094A0A40DA60044B34
:101D340000221A61074B802212059A60BD4680BDBD
:101D4400001002400C40FF88F6FFF6FEFFFFFBFF89
:101D5400FFFF02FF00ED00E080B586B000AF002376
:101D64007B6100233B610023FB600023BB600023F5
:101D74007B60414BDA680C2313407B617B69042B45
:101D840017D002D8002B05D052E0082B15D00C2B0D
:101D940017D04DE0384B5A68E0231B0213405B0B0D
:101DA400FA221202111C99400B1C1A1C334B1A60A4
:101DB40050E0324B324A1A604CE0304B314A1A60E0
:101DC40048E02D4BDA68F0239B0313403B612A4B18
:101DD400DA68C0231B041340FB603B699B0C2A4A4E
:101DE400D35CDBB23B61FB689B0D0133FB60224B90
:101DF400DA6880235B021340BB60BB68002B0BD105
:101E04003B691F4A5343181CF968FEF779F9031C10
:101E14001A1C1A4B1A601DE03B691A4A5343181CDA
:101E2400F968FEF76DF9031C1A1C144B1A6011E0D3
:101E3400114B5A68E0231B0213405B0B7B607B68E9
:101E4400013380221202111C99400B1C1A1C0B4BEB
:101E54001A60C046084BDA68F02313401B090B4A8A
:101E6400D35CDBB27B61054B1A687B69DA40034BB8
:101E74001A60BD4606B080BD001002402C00002050
:101E84000024F40000127A004000002030000020FA
:101E9400B0B582B000AF021C3960FB1D1A70FB1D87
:101EA4001B787F2B32D93049FB1D1B781A1C0F235A
:101EB4001340083B98082C4AFB1D1B781C1C0F235D
:101EC4002340083B9B0806339B00D3185B68FA1D2C
:101ED4001278141C03222240D200FF24251C9540B2
:101EE4002A1CD2431A403B689C01FF231C40FB1D63
:101EF4001B781D1C03232B40DB00251C9D402B1C41
:101F04001A43831D9B00CB185A6029E0174BFA1D16
:101F1400127852B292081549F81D007840B2800830
:101F2400C03080004158F81D0078041C0320204074
:101F3400C000FF24251C8540281CC0430840396884
:101F44008C01FF210C40F91D09780D1C0321294047
:101F5400C900251C8D40291C0143C0329200D15078
:101F6400BD4602B0B0BDC04600ED00E000E100E0B7
:101F740080B500AFFEF714F900F098FA01235B4234
:101F8400181C00210022FEF719FA00F017FB00F0DC
:101F9400E5FA00F0C7F8054B181C4021FEF702FCD7
:101FA400FA235B00181CFEF749F9F4E7000400501B
:101FB40080B584B000AF3B1C0F3332221A7026E088
:101FC4003B1D06221A703B1D55225A703B1D0122EF
:101FD4009A703B1D3122DA703B1D9E221A713B1D03
:101FE40001225A713B1DAA229A713B1DFF22DA710C
:101FF400362000F007FA3B2000F004FA3B1D0120D4
:10200400191C082200F0CAF9352000F0FBF93B1C2A
:102014000F331B783A1C0F32591E1170002BCFD18D
:102024000023181CBD4604B080BDC04680B584B0F2
:1020340000AF3B1C0F3332221A7026E03B1D0622F0
:102044001A703B1D55225A703B1D01229A703B1D8C
:102054003122DA703B1D9E221A713B1D03225A71F4
:102064003B1DAA229A713B1DFF22DA71362000F033
:10207400C9F93B2000F0C6F93B1D0120191C0822B8
:1020840000F08CF9352000F0BDF93B1C0F331B78B0
:102094003A1C0F32591E1170002BCFD10023181C8B
:1020A400BD4604B080BDC04680B584B000AF3B1CC3
:1020B4000F3332221A7026E03B1D06221A703B1D94
:1020C40055225A703B1D01229A703B1D3122DA7051
:1020D4003B1D9E221A713B1DFF225A713B1DAA22F1
:1020E4009A713B1DFF22DA71362000F08BF93B20F8
:1020F40000F088F93B1D0120191C082200F04EF95C
:10210400352000F07FF93B1C0F331B783A1C0F324B
:10211400591E1170002BCFD10023181CBD4604B0EA
:1021240080BDC04690B58DB000AF3B1C9A4A13CA1F
:1021340013C313CA13C313CA13C303CA03C3127842
:102144001A70362000F05EF9302000F05BF93B1C79
:102154009B780220191C00F07BF93A1C2C23D35CD9
:102164000320191C00F074F93B1CDB7F0420191CAC
:1021740000F06EF93A1C2023D35C0520191C00F0F2
:1021840067F93B1C9B790B20191C00F061F93B1C7F
:10219400DB790C20191C00F05BF93B1C1B7A0D2029
:1021A400191C00F055F93B1C5B7A0E20191C00F039
:1021B4004FF93B1C9B7A0F20191C00F049F93B1C7A
:1021C400DB7A1020191C00F043F93B1C1B7B112007
:1021D400191C00F03DF93B1C5B7B1220191C00F01C
:1021E40037F93B1C9B7B1320191C00F031F93B1C75
:1021F400DB7B1420191C00F02BF93B1C5B790A20B3
:10220400191C00F025F93B1C1B7C1520191C00F03F
:102214001FF93B1C5B7E2120191C00F019F93B1CA3
:102224009B7E2220191C00F013F93B1C5B7C1620BA
:10223400191C00F00DF93B1C9B7C1720191C00F0A5
:1022440007F93B1CDB7C1820191C00F001F93B1C2E
:102254001B7D1920191C00F0FBF83B1C5B7D1A2028
:10226400191C00F0F5F83B1C9B7D1B20191C00F089
:10227400EFF83B1CDB7D1C20191C00F0E9F83B1C2B
:102284001B7E1D20191C00F0E3F83B1CDB7E232081
:10229400191C00F0DDF83B1C1B7F2420191C00F0E6
:1022A400D7F83B1C5B7F2520191C00F0D1F83B1CA0
:1022B4009B7F2620191C00F0CBF83A1C2123D35C09
:1022C4002720191C00F0C4F83A1C2223D35C2820D0
:1022D400191C00F0BDF83A1C2323D35C1E20191CE2
:1022E40000F0B6F83A1C2423D35C1F20191C00F01C
:1022F400AFF83A1C2523D35C2020191C00F0A8F861
:102304003A1C2623D35C2920191C00F0A1F83A1C9E
:102314002723D35C2C20191C00F09AF83A1C28239C
:10232400D35C2D20191C00F093F83A1C2923D35CAC
:102334002E20191C00F08CF83B1C1B780020191C63
:1023440000F086F83B1C9B780220191C00F080F8F2
:102354003B1CDB780720191C00F07AF83B1C1B7926
:102364000820191C00F074F83A1C2A23D35C0920B5
:10237400191C00F06DF83A1C2B23D35C0620191CA1
:1023840000F066F83A1C2A23D35C0920191C00F0DB
:102394005FF8BD460DB090BD4C00002080B582B002
:1023A40000AF3960FB1D011C1970BB1D1A70FB1DA9
:1023B4001B78002B01D03F2300E07F230E4A1370CB
:1023C400BB1D1B780D493A68081C111C1A1C00F02F
:1023D40035FABB1D1B789BB201339BB20849064AF0
:1023E400081C111C1A1C6423FEF7C8FF0023181CC8
:1023F400BD4602B080BDC046980000209900002070
:10240400A400002080B584B002AF021CFB1D1A702A
:102414000C4BFA1D12781A700B490A4A0B4B6420B4
:102424000090081C111C1A1C0123FFF7FBF8074B32
:102434001B780F2B01D1002300E00123181CBD469B
:1024440002B080BD98000020A40000208C00002071
:1024540080B584B002AF0A1CFB1D011C1970BB1DA2
:102464001A700F4BFA1D12781A700D4BBA1D1278A0
:102474005A700C490A4A0C4B64200090081C111C29
:102484001A1C0223FFF7CEF8074B1B780F2B01D140
:10249400002300E00123181CBD4602B080BDC046E5
:1024A40098000020A40000208C00002080B594B087
:1024B40000AF274B264A926B802149050A439A6351
:1024C400244B244A1168244A0A40802109010A4302
:1024D4001A603B1D02221A603B1D0122DA603B1D7B
:1024E40010221A613B1D02229A623B1D0022DA620D
:1024F4003B1D8022D2021A633B1D8022D2035A6301
:102504003B1D181CFEF77EF93B1C3C3301221A606C
:102514003B1C3C3303225A603B1C3C3300229A6030
:102524003B1C3C330022DA603B1C3C3300221A6122
:102534003B1C3C33181C0121FEF772FC044B044A7B
:10254400526B01210A435A63BD4614B080BDC04694
:102554000010024000700040FFE7FFFF80B500AFAD
:10256400144B154A1A60134B822252005A60114BC5
:1025740000229A600F4B0022DA600E4B00221A618F
:102584000C4B00225A610B4B8022D2029A61094BF8
:102594001822DA61074B00221A62064B00225A62A3
:1025A400044B00229A62034B181CFEF781FEBD46C1
:1025B40080BDC046A40000200030014080B586B034
:1025C40000AF384B374AD26A01210A43DA62354BED
:1025D400344AD26A02210A43DA623B1D0C221A6091
:1025E4003B1D00225A603B1D00229A60A023DA059D
:1025F4003B1D101C191CFDF71FFF3B1D80221202FE
:102604001A603B1D01225A603B1D01229A603B1D4A
:102614000022DA60A023DA053B1D101C191CFDF70B
:102624000BFFA023DA0580231B02101C191C0122B6
:10263400FEF7A0F83B1D38221A603B1D1A4A5A6067
:102644003B1D00229A60194A3B1D101C191CFDF702
:10265400F3FE3B1D40221A603B1D01225A603B1DC4
:1026640000229A603B1D0022DA60104A3B1D101CB8
:10267400191CFDF7E1FE0D4B181C40210122FEF749
:1026840079F806200121FFF703FC07200121FFF759
:10269400FFFB0620FDF7A8FE0720FDF7A5FEBD46BB
:1026A40006B080BD0010024000001210000400506B
:1026B40080B582B000AF021CBB1D1A80BB1D1B88F5
:1026C400102B13D0202B20D0082B00D02CE01C4B37
:1026D400181C40210022FEF74DF8FFF7E5FC184BCB
:1026E400181C40210122FEF745F81DE0144B181C6C
:1026F40040210022FEF73EF8FFF798FC104B181C0F
:1027040040210122FEF736F80EE00D4B181C402143
:102714000022FEF72FF8FFF74BFC094B181C402151
:102724000122FEF727F8C046A023DA0580231B0206
:10273400101C191C0122FEF71DF8BD4602B080BD15
:102744000004005080B588B000AF78607B681A68D8
:10275400144B9A4222D1144B134A526B80214901E3
:102764000A435A633B1C0C33F0221A603B1C0C33A3
:1027740002225A603B1C0C3300229A603B1C0C332F
:102784000022DA603B1C0C3300221A61A023DA0514
:102794003B1C0C33101C191CFDF74EFEBD4608B043
:1027A40080BDC046003001400010024080B500AF3B
:1027B400FDF72EFDFDF736FEBD4680BD80B500AFAA
:1027C400A023DA0580231B02101C191C0022FDF72C
:1027D400D1FF0820FDF7F8FFBD4680BD80B500AFEE
:1027E400154B181C1021FDF7A7FF031C012B0CD15E
:1027F400A023DA0580231B02101C191C0022FDF7FC
:10280400B9FF1020FDF7E0FF13E00B4B181C20214B
:10281400FDF792FF031C012B0BD1A023DA058023C3
:102824001B02101C191C0022FDF7A4FF2020FDF739
:10283400CBFFBD4680BDC04600040050F0B50F2A52
:1028440035D9031C0B439C0735D1161C103E3609A1
:102854003501451910350C1C031C27681F60676877
:102864005F60A7689F60E7681034DF601033AB4295
:10287400F3D1731C1B01C518C9180F231340032B74
:102884001BD91C1FA4080134A4000023CE58EE5009
:102894000433A342FAD1ED18C91803231A4005D012
:1028A4000023CC5CEC5401339342FAD1F0BD051CF7
:1028B400002AF5D1FAE7051CF2E71A1CF8E7C0462E
:1028C40080B58EB000AFFFF7FDF94A4B4A4A1A6053
:1028D4004A4B494A1A604A4B3B634A4BFB624A4B98
:1028E400BB62FB6A7B6207E07B6A1A1D7A623A6B01
:1028F400111D396312681A60BA6A7B6A9A42F3D866
:102904003C4B1A68414B9A4204D13C4B1A68404BE9
:102914009A4200D0FEE73F4B374A1A603E4B364A94
:102924001A603E4B3B623E4BFB613B6ABB6104E079
:10293400BB691A1DBA6100221A60FA69BB699A421E
:10294400F6D8344B1B68002B03D1334B1B68002B88
:1029540000D0FEE7FFF7BCF93A1D3B1C101C191C04
:10296400FFF79EF92F4A304BD31A9B107B6100234B
:102974003B6107E02C4B3A699200D35898473B6976
:1029840001333B617A693B699A42F3DC274A284B5D
:10299400D31A9B107B6100233B6107E0244B3A6907
:1029A4009200D35898473B6901333B617A693B698C
:1029B4009A42F3DC7A683B68101C191CFFF7D8FABA
:1029C400031C7B631B4A1C4BD31A9B10FB60FB68E4
:1029D400BB6008E0BB685A1E174B9200D358984757
:1029E400BB68013BBB60BB68002BF3DC7B6B181C32
:1029F400FFF750F91C000020BABADECA20000020FC
:102A0400942A0008000000207C000020785634122C
:102A14003254769880000020840000207C0000203E
:102A2400F8000020942A0008942A0008942A000838
:102A3400942A0008942A0008942A000880B500AF5C
:102A4400FFF73EFF80B500AFFEE7C04680B500AF9C
:102A5400FEE7C04680B500AFFEE7C04680B500AFD4
:102A6400FEE7C04680B500AFBD4680BD80B500AF6F
:042A7400FEE7C04673
:102A780000FA000000F4010000E8030000D007009D
:0C2A880040420F0080841E0000093D0049
:102A9400030406080C101820300000000000000099
:102AA40001020304010203040607080978563412DC
:102AB40032547698880000200000000080841E00B4
:102AC40000000000000000000102030406070809DA
:102AD400030406080C101820300000002900061218
:102AE400121009005D93B12D3B73A2F80107301851
:102AF4001D1CC700B2B610EA0A0011D39141008729
:0C2B04006BF85988310B01FF070000003E
:0400000508002A4184
:00000001FF
